{
  "contractName": "Authorize",
  "abi": [
    {
      "anonymous": false,
      "inputs": [
        {
          "indexed": true,
          "internalType": "address",
          "name": "_byWhom",
          "type": "address"
        },
        {
          "indexed": true,
          "internalType": "address",
          "name": "_newCreatorAssigned",
          "type": "address"
        }
      ],
      "name": "NewCreatorAssigned",
      "type": "event"
    },
    {
      "anonymous": false,
      "inputs": [
        {
          "indexed": true,
          "internalType": "address",
          "name": "_byWhom",
          "type": "address"
        },
        {
          "indexed": true,
          "internalType": "address",
          "name": "_newDeliveryAssigned",
          "type": "address"
        }
      ],
      "name": "NewDeliveryAssigned",
      "type": "event"
    },
    {
      "anonymous": false,
      "inputs": [
        {
          "indexed": true,
          "internalType": "address",
          "name": "previousOwner",
          "type": "address"
        },
        {
          "indexed": true,
          "internalType": "address",
          "name": "newOwner",
          "type": "address"
        }
      ],
      "name": "OwnershipTransferred",
      "type": "event"
    },
    {
      "inputs": [
        {
          "internalType": "address",
          "name": "",
          "type": "address"
        }
      ],
      "name": "isCreator",
      "outputs": [
        {
          "internalType": "bool",
          "name": "",
          "type": "bool"
        }
      ],
      "stateMutability": "view",
      "type": "function"
    },
    {
      "inputs": [
        {
          "internalType": "address",
          "name": "",
          "type": "address"
        }
      ],
      "name": "isDelivery",
      "outputs": [
        {
          "internalType": "bool",
          "name": "",
          "type": "bool"
        }
      ],
      "stateMutability": "view",
      "type": "function"
    },
    {
      "inputs": [],
      "name": "owner",
      "outputs": [
        {
          "internalType": "address",
          "name": "",
          "type": "address"
        }
      ],
      "stateMutability": "view",
      "type": "function"
    },
    {
      "inputs": [],
      "name": "renounceOwnership",
      "outputs": [],
      "stateMutability": "nonpayable",
      "type": "function"
    },
    {
      "inputs": [
        {
          "internalType": "address",
          "name": "newOwner",
          "type": "address"
        }
      ],
      "name": "transferOwnership",
      "outputs": [],
      "stateMutability": "nonpayable",
      "type": "function"
    },
    {
      "inputs": [
        {
          "internalType": "address",
          "name": "_creatorAddress",
          "type": "address"
        }
      ],
      "name": "setCreator",
      "outputs": [],
      "stateMutability": "nonpayable",
      "type": "function"
    },
    {
      "inputs": [
        {
          "internalType": "address",
          "name": "_delivererAddress",
          "type": "address"
        }
      ],
      "name": "setDeliverer",
      "outputs": [],
      "stateMutability": "nonpayable",
      "type": "function"
    }
  ],
  "bytecode": "0x608060405234801561001057600080fd5b5061002d61002261003260201b60201c565b61003a60201b60201c565b6100fe565b600033905090565b60008060009054906101000a900473ffffffffffffffffffffffffffffffffffffffff169050816000806101000a81548173ffffffffffffffffffffffffffffffffffffffff021916908373ffffffffffffffffffffffffffffffffffffffff1602179055508173ffffffffffffffffffffffffffffffffffffffff168173ffffffffffffffffffffffffffffffffffffffff167f8be0079c531659141344cd1fd0a4f28419497f9722a3daafe3b4186f6b6457e060405160405180910390a35050565b6108a08061010d6000396000f3fe608060405234801561001057600080fd5b506004361061007d5760003560e01c8063715018a61161005b578063715018a6146100ea5780638da5cb5b146100f4578063efd4606514610112578063f2fde38b146101425761007d565b80630748186d146100825780632ee092c11461009e5780633f516018146100ce575b600080fd5b61009c60048036038101906100979190610689565b61015e565b005b6100b860048036038101906100b39190610689565b61028f565b6040516100c59190610731565b60405180910390f35b6100e860048036038101906100e39190610689565b6102af565b005b6100f26103df565b005b6100fc610467565b6040516101099190610716565b60405180910390f35b61012c60048036038101906101279190610689565b610490565b6040516101399190610731565b60405180910390f35b61015c60048036038101906101579190610689565b6104b0565b005b6101666105a8565b73ffffffffffffffffffffffffffffffffffffffff16610184610467565b73ffffffffffffffffffffffffffffffffffffffff16146101da576040517f08c379a00000000000000000000000000000000000000000000000000000000081526004016101d19061076c565b60405180910390fd5b6001600260008373ffffffffffffffffffffffffffffffffffffffff1673ffffffffffffffffffffffffffffffffffffffff16815260200190815260200160002060006101000a81548160ff0219169083151502179055508073ffffffffffffffffffffffffffffffffffffffff163373ffffffffffffffffffffffffffffffffffffffff167f5f73ee044fde9264fdfad69bb9fd7647532dec39e2bab205bb9a04d462b5930060405160405180910390a350565b60026020528060005260406000206000915054906101000a900460ff1681565b6102b76105a8565b73ffffffffffffffffffffffffffffffffffffffff166102d5610467565b73ffffffffffffffffffffffffffffffffffffffff161461032b576040517f08c379a00000000000000000000000000000000000000000000000000000000081526004016103229061076c565b60405180910390fd5b60018060008373ffffffffffffffffffffffffffffffffffffffff1673ffffffffffffffffffffffffffffffffffffffff16815260200190815260200160002060006101000a81548160ff0219169083151502179055508073ffffffffffffffffffffffffffffffffffffffff163373ffffffffffffffffffffffffffffffffffffffff167fefad7fe8af1978cc72cc1b9190599d67542680c2a74ae10142140e6f214d237060405160405180910390a350565b6103e76105a8565b73ffffffffffffffffffffffffffffffffffffffff16610405610467565b73ffffffffffffffffffffffffffffffffffffffff161461045b576040517f08c379a00000000000000000000000000000000000000000000000000000000081526004016104529061076c565b60405180910390fd5b61046560006105b0565b565b60008060009054906101000a900473ffffffffffffffffffffffffffffffffffffffff16905090565b60016020528060005260406000206000915054906101000a900460ff1681565b6104b86105a8565b73ffffffffffffffffffffffffffffffffffffffff166104d6610467565b73ffffffffffffffffffffffffffffffffffffffff161461052c576040517f08c379a00000000000000000000000000000000000000000000000000000000081526004016105239061076c565b60405180910390fd5b600073ffffffffffffffffffffffffffffffffffffffff168173ffffffffffffffffffffffffffffffffffffffff16141561059c576040517f08c379a00000000000000000000000000000000000000000000000000000000081526004016105939061074c565b60405180910390fd5b6105a5816105b0565b50565b600033905090565b60008060009054906101000a900473ffffffffffffffffffffffffffffffffffffffff169050816000806101000a81548173ffffffffffffffffffffffffffffffffffffffff021916908373ffffffffffffffffffffffffffffffffffffffff1602179055508173ffffffffffffffffffffffffffffffffffffffff168173ffffffffffffffffffffffffffffffffffffffff167f8be0079c531659141344cd1fd0a4f28419497f9722a3daafe3b4186f6b6457e060405160405180910390a35050565b60008135905061068381610853565b92915050565b60006020828403121561069b57600080fd5b60006106a984828501610674565b91505092915050565b6106bb8161079d565b82525050565b6106ca816107af565b82525050565b60006106dd60268361078c565b91506106e8826107db565b604082019050919050565b600061070060208361078c565b915061070b8261082a565b602082019050919050565b600060208201905061072b60008301846106b2565b92915050565b600060208201905061074660008301846106c1565b92915050565b60006020820190508181036000830152610765816106d0565b9050919050565b60006020820190508181036000830152610785816106f3565b9050919050565b600082825260208201905092915050565b60006107a8826107bb565b9050919050565b60008115159050919050565b600073ffffffffffffffffffffffffffffffffffffffff82169050919050565b7f4f776e61626c653a206e6577206f776e657220697320746865207a65726f206160008201527f6464726573730000000000000000000000000000000000000000000000000000602082015250565b7f4f776e61626c653a2063616c6c6572206973206e6f7420746865206f776e6572600082015250565b61085c8161079d565b811461086757600080fd5b5056fea26469706673582212200cc9237c09f314210101228280efa8296f193f758c33e578e12ba8eb1793b67564736f6c63430008010033",
  "immutableReferences": {},
  "source": "// SPDX-License-Identifier: MIT\r\npragma solidity ^0.8.0; \r\n\r\nimport \"@openzeppelin/contracts/access/Ownable.sol\" ; \r\nimport \"./Item.sol\" ; \r\n\r\n\r\n\r\ncontract Authorize is Ownable{\r\n    mapping(address => bool) public isCreator ; \r\n    mapping(address => bool) public isDelivery;\r\n    event NewCreatorAssigned(address indexed _byWhom,address indexed _newCreatorAssigned);  \r\n    event NewDeliveryAssigned(address indexed _byWhom,address indexed _newDeliveryAssigned);  \r\n    \r\n    function setCreator(address _creatorAddress) public onlyOwner{\r\n        isCreator[_creatorAddress] = true ;\r\n        emit NewCreatorAssigned(msg.sender, _creatorAddress);\r\n    }\r\n    \r\n    function setDeliverer(address _delivererAddress) public onlyOwner{\r\n        isDelivery[_delivererAddress] = true ; \r\n        emit NewDeliveryAssigned(msg.sender, _delivererAddress);\r\n    }\r\n    \r\n    modifier onlyCreator ()  {\r\n        require(isCreator[msg.sender],\"You Are Not Allowed to Create Items\");\r\n        _;\r\n    }\r\n    modifier onlyDelivery ()  {\r\n        require(isDelivery[msg.sender],\"You Are Not Allowed to Deliver Items\");\r\n        _;\r\n    }\r\n    \r\n}\r\n\r\ncontract ItemManager is Authorize{\r\n    \r\n    enum SupplyChainState{Created,Paid,Delivered} \r\n    struct S_Item{\r\n        string  _identifier ; \r\n        uint _itemPrice ; \r\n        ItemManager.SupplyChainState _state ; \r\n        Item item ; \r\n    }\r\n    mapping (uint => S_Item) public items ; \r\n    uint index;\r\n    \r\n    event SupplyChainStep(uint _itemIndex,uint _itemPrice, uint _step, address itemContractAddress );\r\n    \r\n    function viewAddress() external view returns(address){\r\n        return address(this);\r\n    }\r\n    function createItem(string memory _identifier,uint _itemPrice) public { // Only Creator Modifier onlyCreator\r\n     //   /has to emit item creaton event somewhere\r\n        Item newItem = new Item(this,_itemPrice,index);\r\n        items[index]._identifier = _identifier ; \r\n        items[index].item =  newItem ; \r\n        items[index]._itemPrice = _itemPrice ; \r\n        items[index]._state = SupplyChainState.Created ; \r\n        emit SupplyChainStep( index ,items[index]._itemPrice, uint(items[index]._state) , address(items[index].item) );\r\n        index++;\r\n    }\r\n    \r\n    function triggerPayment(uint _index)  public payable {\r\n        require(items[_index]._itemPrice == msg.value , \"Full Payments Only\");\r\n        require(items[_index]._state == SupplyChainState.Created , \"Item is further along the supply chain\");\r\n        items[_index]._state = SupplyChainState.Paid ; \r\n        \r\n        emit SupplyChainStep(_index,items[index]._itemPrice,uint(items[_index]._state), address(items[index].item)); \r\n    }\r\n    \r\n\r\n\r\n    function seeProgress(uint _index) view external returns (uint){\r\n        return uint(items[_index]._state);\r\n    }\r\n  \r\n    function triggerDelivery(uint _index) public  { //ONLY DELIVERY MAN MODIFIER onlyDelivery\r\n       require(items[_index]._state == SupplyChainState.Paid , \"Item is either not paid for or further along the supply chain\");\r\n       items[_index]._state = SupplyChainState.Delivered  ; \r\n       emit SupplyChainStep(_index,items[index]._itemPrice,uint(items[_index]._state), address(items[index].item)); \r\n    }\r\n\r\nfunction UnitTestPayFunnelForFirstItem() public payable{\r\n    //    address itemAddress = address(items[0].item) ; \r\n    //     (bool success , ) = payable(itemAddress)\r\n    //     .call{value:msg.value,gas:3000000}(\"\");                //// Might need to change thsi value a litle \r\n    //     require(success,\"TRXN was UNSSUCCESFULL\");\r\n        (bool success , ) = payable(items[0].item)\r\n        .call{value:msg.value,gas:3000000}(\"\");                //// Might need to change thsi value a litle \r\n        require(success,\"TRXN was UNSSUCCESFULL\");\r\n            //    emit SupplyChainStep(0,items[0]._itemPrice,uint(items[0]._state), address(items[0].item)); \r\n\r\n    }\r\n\r\n    \r\n\r\n}\r\n\r\ncontract TestFunnel is ItemManager{\r\n    receive() external payable {\r\n        // require(_itemPrice <= msg.value, \"Insufficient Amount of Wei Sent\"); \r\n        // if(msg.value>_itemPrice){\r\n        //     uint extra = msg.value-_itemPrice ; \r\n        //     payable(msg.sender).transfer(extra) ; //might need to send a bit less?? to have some gass left? ADD FUNCTION FOR GAS \r\n        // }\r\n        //  require(!_paymentDone,\"Item is already paid for\");\r\n        //  _paymentDone = true; \r\n        \r\n        // (bool status , ) = \r\n        //     address(_parentContract)\r\n        //     .call{value:_itemPrice,gas:3000000}                //// Might need to change thsi value a litle \r\n        //     (abi.encodeWithSignature(\"triggerPayment(uint256)\",_itemIndex));\r\n        \r\n        // require(status, \"Payment Unsuccesful Reverting TRXN\") ; \r\n        \r\n    }\r\n    \r\n// comment out the function below later     \r\n    // function UnitTestPayFunnelForFirstItem() public payable{\r\n    // //    address itemAddress = address(items[0].item) ; \r\n    // //     (bool success , ) = payable(itemAddress)\r\n    // //     .call{value:msg.value,gas:3000000}(\"\");                //// Might need to change thsi value a litle \r\n    // //     require(success,\"TRXN was UNSSUCCESFULL\");\r\n    //     (bool success , ) = payable(items[0].item)\r\n    //     .call{value:msg.value,gas:3000000}(\"\");                //// Might need to change thsi value a litle \r\n    //     require(success,\"TRXN was UNSSUCCESFULL\");\r\n    //         //    emit SupplyChainStep(0,items[0]._itemPrice,uint(items[0]._state), address(items[0].item)); \r\n\r\n    // }\r\n\r\n}",
  "sourcePath": "C:\\Users\\Asus\\OneDrive - BUET\\_CSE_sourceCode\\Projects\\TRUFFLE PROJECTS\\SupplyChain\\contracts\\ItemManager.sol",
  "compiler": {
    "name": "solc",
    "version": "0.8.1+commit.df193b15.Emscripten.clang"
  },
  "schemaVersion": "3.4.3",
  "updatedAt": "2021-11-03T14:51:14.421Z",
  "devdoc": {
    "kind": "dev",
    "methods": {
      "owner()": {
        "details": "Returns the address of the current owner."
      },
      "renounceOwnership()": {
        "details": "Leaves the contract without owner. It will not be possible to call `onlyOwner` functions anymore. Can only be called by the current owner. NOTE: Renouncing ownership will leave the contract without an owner, thereby removing any functionality that is only available to the owner."
      },
      "transferOwnership(address)": {
        "details": "Transfers ownership of the contract to a new account (`newOwner`). Can only be called by the current owner."
      }
    },
    "version": 1
  },
  "userdoc": {
    "kind": "user",
    "methods": {},
    "version": 1
  }
}