{
  "contractName": "Item",
  "abi": [
    {
      "inputs": [
        {
          "internalType": "contract ItemManager",
          "name": "initiatingContract",
          "type": "address"
        },
        {
          "internalType": "uint256",
          "name": "_price",
          "type": "uint256"
        },
        {
          "internalType": "uint256",
          "name": "_index",
          "type": "uint256"
        }
      ],
      "stateMutability": "nonpayable",
      "type": "constructor"
    },
    {
      "inputs": [],
      "name": "_itemIndex",
      "outputs": [
        {
          "internalType": "uint256",
          "name": "",
          "type": "uint256"
        }
      ],
      "stateMutability": "view",
      "type": "function",
      "constant": true
    },
    {
      "inputs": [],
      "name": "_itemPrice",
      "outputs": [
        {
          "internalType": "uint256",
          "name": "",
          "type": "uint256"
        }
      ],
      "stateMutability": "view",
      "type": "function",
      "constant": true
    },
    {
      "inputs": [],
      "name": "_parentContract",
      "outputs": [
        {
          "internalType": "contract ItemManager",
          "name": "",
          "type": "address"
        }
      ],
      "stateMutability": "view",
      "type": "function",
      "constant": true
    },
    {
      "inputs": [],
      "name": "_paymentDone",
      "outputs": [
        {
          "internalType": "bool",
          "name": "",
          "type": "bool"
        }
      ],
      "stateMutability": "view",
      "type": "function",
      "constant": true
    },
    {
      "stateMutability": "payable",
      "type": "receive",
      "payable": true
    }
  ],
  "bytecode": "0x608060405234801561001057600080fd5b506040516108c63803806108c6833981810160405281019061003291906100b3565b806001819055508160008190555082600260016101000a81548173ffffffffffffffffffffffffffffffffffffffff021916908373ffffffffffffffffffffffffffffffffffffffff16021790555050505061017e565b60008151905061009881610150565b92915050565b6000815190506100ad81610167565b92915050565b6000806000606084860312156100c857600080fd5b60006100d686828701610089565b93505060206100e78682870161009e565b92505060406100f88682870161009e565b9150509250925092565b600061010d82610126565b9050919050565b600061011f82610102565b9050919050565b600073ffffffffffffffffffffffffffffffffffffffff82169050919050565b6000819050919050565b61015981610114565b811461016457600080fd5b50565b61017081610146565b811461017b57600080fd5b50565b6107398061018d6000396000f3fe6080604052600436106100435760003560e01c8063027b753f146102cb5780637a345686146102f6578063b07a31e314610321578063cf086c321461034c576102c6565b366102c65734600054111561008d576040517f08c379a0000000000000000000000000000000000000000000000000000000008152600401610084906104f0565b60405180910390fd5b6000543411156100f15760008054346100a69190610572565b90503373ffffffffffffffffffffffffffffffffffffffff166108fc829081150290604051600060405180830381858888f193505050501580156100ee573d6000803e3d6000fd5b50505b600260009054906101000a900460ff1615610141576040517f08c379a000000000000000000000000000000000000000000000000000000000815260040161013890610510565b60405180910390fd5b6001600260006101000a81548160ff0219169083151502179055506000600260019054906101000a900473ffffffffffffffffffffffffffffffffffffffff1673ffffffffffffffffffffffffffffffffffffffff16600054622dc6c0906001546040516024016101b29190610530565b6040516020818303038152906040527f800fb83f000000000000000000000000000000000000000000000000000000007bffffffffffffffffffffffffffffffffffffffffffffffffffffffff19166020820180517bffffffffffffffffffffffffffffffffffffffffffffffffffffffff838183161783525050505060405161023c9190610483565b600060405180830381858888f193505050503d806000811461027a576040519150601f19603f3d011682016040523d82523d6000602084013e61027f565b606091505b50509050806102c3576040517f08c379a00000000000000000000000000000000000000000000000000000000081526004016102ba906104d0565b60405180910390fd5b50005b600080fd5b3480156102d757600080fd5b506102e0610377565b6040516102ed91906104b5565b60405180910390f35b34801561030257600080fd5b5061030b61039d565b604051610318919061049a565b60405180910390f35b34801561032d57600080fd5b506103366103b0565b6040516103439190610530565b60405180910390f35b34801561035857600080fd5b506103616103b6565b60405161036e9190610530565b60405180910390f35b600260019054906101000a900473ffffffffffffffffffffffffffffffffffffffff1681565b600260009054906101000a900460ff1681565b60005481565b60015481565b6103c5816105a6565b82525050565b60006103d68261054b565b6103e08185610556565b93506103f0818560208601610600565b80840191505092915050565b610405816105dc565b82525050565b6000610418602283610561565b915061042382610662565b604082019050919050565b600061043b601f83610561565b9150610446826106b1565b602082019050919050565b600061045e601883610561565b9150610469826106da565b602082019050919050565b61047d816105d2565b82525050565b600061048f82846103cb565b915081905092915050565b60006020820190506104af60008301846103bc565b92915050565b60006020820190506104ca60008301846103fc565b92915050565b600060208201905081810360008301526104e98161040b565b9050919050565b600060208201905081810360008301526105098161042e565b9050919050565b6000602082019050818103600083015261052981610451565b9050919050565b60006020820190506105456000830184610474565b92915050565b600081519050919050565b600081905092915050565b600082825260208201905092915050565b600061057d826105d2565b9150610588836105d2565b92508282101561059b5761059a610633565b5b828203905092915050565b60008115159050919050565b600073ffffffffffffffffffffffffffffffffffffffff82169050919050565b6000819050919050565b60006105e7826105ee565b9050919050565b60006105f9826105b2565b9050919050565b60005b8381101561061e578082015181840152602081019050610603565b8381111561062d576000848401525b50505050565b7f4e487b7100000000000000000000000000000000000000000000000000000000600052601160045260246000fd5b7f5061796d656e7420556e73756363657366756c20526576657274696e6720545260008201527f584e000000000000000000000000000000000000000000000000000000000000602082015250565b7f496e73756666696369656e7420416d6f756e74206f66205765692053656e7400600082015250565b7f4974656d20697320616c7265616479207061696420666f72000000000000000060008201525056fea2646970667358221220ed18d4f94f5b5ce7cbd067d3b78efb960a42a9b66f9b537ff0e067c2de6e030664736f6c63430008010033",
  "immutableReferences": {},
  "source": "// SPDX-License-Identifier: MIT\r\npragma solidity ^0.8.0; \r\n\r\nimport \"./ItemManager.sol\";\r\ncontract Item{\r\n    uint public _itemPrice ; \r\n    uint public _itemIndex; \r\n    bool public _paymentDone ; \r\n\r\n    ItemManager public _parentContract ; \r\n    \r\n    constructor(ItemManager initiatingContract, uint _price,uint _index)  {\r\n        _itemIndex = _index; \r\n        _itemPrice = _price ; \r\n        _parentContract = initiatingContract ; \r\n    }\r\n\r\n    // TODO -unit test functionality - if client pays extra ,sed the remaingn back toclient\r\n    receive() external payable {\r\n        require(_itemPrice <= msg.value, \"Insufficient Amount of Wei Sent\"); \r\n        if(msg.value>_itemPrice){\r\n            uint extra = msg.value-_itemPrice ; \r\n            payable(msg.sender).transfer(extra) ; //might need to send a bit less?? to have some gass left? ADD FUNCTION FOR GAS \r\n        }\r\n         require(!_paymentDone,\"Item is already paid for\");\r\n         _paymentDone = true; \r\n        \r\n        (bool status , ) = \r\n            address(_parentContract)\r\n            .call{value:_itemPrice,gas:3000000}                //// Might need to change thsi value a litle \r\n            (abi.encodeWithSignature(\"triggerPayment(uint256)\",_itemIndex));\r\n        \r\n        require(status, \"Payment Unsuccesful Reverting TRXN\") ; \r\n        \r\n    }\r\n   \r\n}\r\n",
  "sourcePath": "C:\\Users\\Asus\\OneDrive - BUET\\_CSE_sourceCode\\Projects\\TRUFFLE PROJECTS\\SupplyChain\\contracts\\Item.sol",
  "compiler": {
    "name": "solc",
    "version": "0.8.1+commit.df193b15.Emscripten.clang"
  },
  "schemaVersion": "3.4.3",
  "updatedAt": "2021-11-03T14:52:34.556Z",
  "networkType": "ethereum",
  "devdoc": {
    "kind": "dev",
    "methods": {},
    "version": 1
  },
  "userdoc": {
    "kind": "user",
    "methods": {},
    "version": 1
  }
}