{
  "contractName": "TestFunnel",
  "abi": [
    {
      "anonymous": false,
      "inputs": [
        {
          "indexed": true,
          "internalType": "address",
          "name": "_byWhom",
          "type": "address"
        },
        {
          "indexed": true,
          "internalType": "address",
          "name": "_newCreatorAssigned",
          "type": "address"
        }
      ],
      "name": "NewCreatorAssigned",
      "type": "event"
    },
    {
      "anonymous": false,
      "inputs": [
        {
          "indexed": true,
          "internalType": "address",
          "name": "_byWhom",
          "type": "address"
        },
        {
          "indexed": true,
          "internalType": "address",
          "name": "_newDeliveryAssigned",
          "type": "address"
        }
      ],
      "name": "NewDeliveryAssigned",
      "type": "event"
    },
    {
      "anonymous": false,
      "inputs": [
        {
          "indexed": true,
          "internalType": "address",
          "name": "previousOwner",
          "type": "address"
        },
        {
          "indexed": true,
          "internalType": "address",
          "name": "newOwner",
          "type": "address"
        }
      ],
      "name": "OwnershipTransferred",
      "type": "event"
    },
    {
      "anonymous": false,
      "inputs": [
        {
          "indexed": false,
          "internalType": "uint256",
          "name": "_itemIndex",
          "type": "uint256"
        },
        {
          "indexed": false,
          "internalType": "uint256",
          "name": "_itemPrice",
          "type": "uint256"
        },
        {
          "indexed": false,
          "internalType": "uint256",
          "name": "_step",
          "type": "uint256"
        },
        {
          "indexed": false,
          "internalType": "address",
          "name": "itemContractAddress",
          "type": "address"
        }
      ],
      "name": "SupplyChainStep",
      "type": "event"
    },
    {
      "inputs": [],
      "name": "UnitTestPayFunnelForFirstItem",
      "outputs": [],
      "stateMutability": "payable",
      "type": "function"
    },
    {
      "inputs": [
        {
          "internalType": "string",
          "name": "_identifier",
          "type": "string"
        },
        {
          "internalType": "uint256",
          "name": "_itemPrice",
          "type": "uint256"
        }
      ],
      "name": "createItem",
      "outputs": [],
      "stateMutability": "nonpayable",
      "type": "function"
    },
    {
      "inputs": [
        {
          "internalType": "address",
          "name": "",
          "type": "address"
        }
      ],
      "name": "isCreator",
      "outputs": [
        {
          "internalType": "bool",
          "name": "",
          "type": "bool"
        }
      ],
      "stateMutability": "view",
      "type": "function"
    },
    {
      "inputs": [
        {
          "internalType": "address",
          "name": "",
          "type": "address"
        }
      ],
      "name": "isDelivery",
      "outputs": [
        {
          "internalType": "bool",
          "name": "",
          "type": "bool"
        }
      ],
      "stateMutability": "view",
      "type": "function"
    },
    {
      "inputs": [
        {
          "internalType": "uint256",
          "name": "",
          "type": "uint256"
        }
      ],
      "name": "items",
      "outputs": [
        {
          "internalType": "string",
          "name": "_identifier",
          "type": "string"
        },
        {
          "internalType": "uint256",
          "name": "_itemPrice",
          "type": "uint256"
        },
        {
          "internalType": "enum ItemManager.SupplyChainState",
          "name": "_state",
          "type": "uint8"
        },
        {
          "internalType": "contract Item",
          "name": "item",
          "type": "address"
        }
      ],
      "stateMutability": "view",
      "type": "function"
    },
    {
      "inputs": [],
      "name": "owner",
      "outputs": [
        {
          "internalType": "address",
          "name": "",
          "type": "address"
        }
      ],
      "stateMutability": "view",
      "type": "function"
    },
    {
      "inputs": [],
      "name": "renounceOwnership",
      "outputs": [],
      "stateMutability": "nonpayable",
      "type": "function"
    },
    {
      "inputs": [
        {
          "internalType": "uint256",
          "name": "_index",
          "type": "uint256"
        }
      ],
      "name": "seeProgress",
      "outputs": [
        {
          "internalType": "uint256",
          "name": "",
          "type": "uint256"
        }
      ],
      "stateMutability": "view",
      "type": "function"
    },
    {
      "inputs": [
        {
          "internalType": "address",
          "name": "_creatorAddress",
          "type": "address"
        }
      ],
      "name": "setCreator",
      "outputs": [],
      "stateMutability": "nonpayable",
      "type": "function"
    },
    {
      "inputs": [
        {
          "internalType": "address",
          "name": "_delivererAddress",
          "type": "address"
        }
      ],
      "name": "setDeliverer",
      "outputs": [],
      "stateMutability": "nonpayable",
      "type": "function"
    },
    {
      "inputs": [
        {
          "internalType": "address",
          "name": "newOwner",
          "type": "address"
        }
      ],
      "name": "transferOwnership",
      "outputs": [],
      "stateMutability": "nonpayable",
      "type": "function"
    },
    {
      "inputs": [
        {
          "internalType": "uint256",
          "name": "_index",
          "type": "uint256"
        }
      ],
      "name": "triggerDelivery",
      "outputs": [],
      "stateMutability": "nonpayable",
      "type": "function"
    },
    {
      "inputs": [
        {
          "internalType": "uint256",
          "name": "_index",
          "type": "uint256"
        }
      ],
      "name": "triggerPayment",
      "outputs": [],
      "stateMutability": "payable",
      "type": "function"
    },
    {
      "inputs": [],
      "name": "viewAddress",
      "outputs": [
        {
          "internalType": "address",
          "name": "",
          "type": "address"
        }
      ],
      "stateMutability": "view",
      "type": "function"
    },
    {
      "stateMutability": "payable",
      "type": "receive"
    }
  ],
  "bytecode": "0x608060405234801561001057600080fd5b5061002d61002261003260201b60201c565b61003a60201b60201c565b6100fe565b600033905090565b60008060009054906101000a900473ffffffffffffffffffffffffffffffffffffffff169050816000806101000a81548173ffffffffffffffffffffffffffffffffffffffff021916908373ffffffffffffffffffffffffffffffffffffffff1602179055508173ffffffffffffffffffffffffffffffffffffffff168173ffffffffffffffffffffffffffffffffffffffff167f8be0079c531659141344cd1fd0a4f28419497f9722a3daafe3b4186f6b6457e060405160405180910390a35050565b6125e58061010d6000396000f3fe608060405260043610620000f75760003560e01c80638c551742116200008b578063cd31831e1162000061578063cd31831e14620002f7578063efd460651462000325578063f2fde38b1462000369578063fc7b3490146200039757620000ff565b80638c55174214620002525780638da5cb5b1462000280578063bfb231d214620002b057620000ff565b80632ee092c111620000cd5780632ee092c114620001a65780633f51601814620001ea578063715018a61462000218578063800fb83f146200023257620000ff565b80630748186d14620001045780630f4027f5146200013257806318b04c8a146200017657620000ff565b36620000ff57005b600080fd5b3480156200011157600080fd5b506200013060048036038101906200012a91906200139c565b620003a3565b005b3480156200013f57600080fd5b506200015e600480360381019062000158919062001422565b620004db565b6040516200016d9190620017b4565b60405180910390f35b3480156200018357600080fd5b506200018e62000541565b6040516200019d91906200161d565b60405180910390f35b348015620001b357600080fd5b50620001d26004803603810190620001cc91906200139c565b62000549565b604051620001e191906200163a565b60405180910390f35b348015620001f757600080fd5b506200021660048036038101906200021091906200139c565b62000569565b005b3480156200022557600080fd5b5062000230620006a0565b005b6200025060048036038101906200024a919062001422565b62000731565b005b3480156200025f57600080fd5b506200027e6004803603810190620002789190620013c8565b620009bb565b005b3480156200028d57600080fd5b506200029862000c17565b604051620002a791906200161d565b60405180910390f35b348015620002bd57600080fd5b50620002dc6004803603810190620002d6919062001422565b62000c40565b604051620002ee949392919062001694565b60405180910390f35b3480156200030457600080fd5b506200032360048036038101906200031d919062001422565b62000d2d565b005b3480156200033257600080fd5b506200035160048036038101906200034b91906200139c565b62000f5c565b6040516200036091906200163a565b60405180910390f35b3480156200037657600080fd5b506200039560048036038101906200038f91906200139c565b62000f7c565b005b620003a162001080565b005b620003ad62001172565b73ffffffffffffffffffffffffffffffffffffffff16620003cd62000c17565b73ffffffffffffffffffffffffffffffffffffffff161462000426576040517f08c379a00000000000000000000000000000000000000000000000000000000081526004016200041d9062001792565b60405180910390fd5b6001600260008373ffffffffffffffffffffffffffffffffffffffff1673ffffffffffffffffffffffffffffffffffffffff16815260200190815260200160002060006101000a81548160ff0219169083151502179055508073ffffffffffffffffffffffffffffffffffffffff163373ffffffffffffffffffffffffffffffffffffffff167f5f73ee044fde9264fdfad69bb9fd7647532dec39e2bab205bb9a04d462b5930060405160405180910390a350565b60006003600083815260200190815260200160002060020160009054906101000a900460ff1660028111156200053a577f4e487b7100000000000000000000000000000000000000000000000000000000600052602160045260246000fd5b9050919050565b600030905090565b60026020528060005260406000206000915054906101000a900460ff1681565b6200057362001172565b73ffffffffffffffffffffffffffffffffffffffff166200059362000c17565b73ffffffffffffffffffffffffffffffffffffffff1614620005ec576040517f08c379a0000000000000000000000000000000000000000000000000000000008152600401620005e39062001792565b60405180910390fd5b60018060008373ffffffffffffffffffffffffffffffffffffffff1673ffffffffffffffffffffffffffffffffffffffff16815260200190815260200160002060006101000a81548160ff0219169083151502179055508073ffffffffffffffffffffffffffffffffffffffff163373ffffffffffffffffffffffffffffffffffffffff167fefad7fe8af1978cc72cc1b9190599d67542680c2a74ae10142140e6f214d237060405160405180910390a350565b620006aa62001172565b73ffffffffffffffffffffffffffffffffffffffff16620006ca62000c17565b73ffffffffffffffffffffffffffffffffffffffff161462000723576040517f08c379a00000000000000000000000000000000000000000000000000000000081526004016200071a9062001792565b60405180910390fd5b6200072f60006200117a565b565b346003600083815260200190815260200160002060010154146200078c576040517f08c379a00000000000000000000000000000000000000000000000000000000081526004016200078390620016e8565b60405180910390fd5b60006002811115620007c7577f4e487b7100000000000000000000000000000000000000000000000000000000600052602160045260246000fd5b6003600083815260200190815260200160002060020160009054906101000a900460ff16600281111562000824577f4e487b7100000000000000000000000000000000000000000000000000000000600052602160045260246000fd5b1462000867576040517f08c379a00000000000000000000000000000000000000000000000000000000081526004016200085e9062001770565b60405180910390fd5b60016003600083815260200190815260200160002060020160006101000a81548160ff02191690836002811115620008c8577f4e487b7100000000000000000000000000000000000000000000000000000000600052602160045260246000fd5b02179055507f3a9ad46edabca5118a3cdd8fa59b5b9399d08b29a6f0e99b58bce2b98273e95981600360006004548152602001908152602001600020600101546003600085815260200190815260200160002060020160009054906101000a900460ff16600281111562000965577f4e487b7100000000000000000000000000000000000000000000000000000000600052602160045260246000fd5b60036000600454815260200190815260200160002060020160019054906101000a900473ffffffffffffffffffffffffffffffffffffffff16604051620009b09493929190620017d1565b60405180910390a150565b60003082600454604051620009d0906200123e565b620009de9392919062001657565b604051809103906000f080158015620009fb573d6000803e3d6000fd5b50905082600360006004548152602001908152602001600020600001908051906020019062000a2c9291906200124c565b508060036000600454815260200190815260200160002060020160016101000a81548173ffffffffffffffffffffffffffffffffffffffff021916908373ffffffffffffffffffffffffffffffffffffffff1602179055508160036000600454815260200190815260200160002060010181905550600060036000600454815260200190815260200160002060020160006101000a81548160ff0219169083600281111562000b04577f4e487b7100000000000000000000000000000000000000000000000000000000600052602160045260246000fd5b02179055507f3a9ad46edabca5118a3cdd8fa59b5b9399d08b29a6f0e99b58bce2b98273e9596004546003600060045481526020019081526020016000206001015460036000600454815260200190815260200160002060020160009054906101000a900460ff16600281111562000ba5577f4e487b7100000000000000000000000000000000000000000000000000000000600052602160045260246000fd5b60036000600454815260200190815260200160002060020160019054906101000a900473ffffffffffffffffffffffffffffffffffffffff1660405162000bf09493929190620017d1565b60405180910390a16004600081548092919062000c0d9062001a18565b9190505550505050565b60008060009054906101000a900473ffffffffffffffffffffffffffffffffffffffff16905090565b600360205280600052604060002060009150905080600001805462000c6590620019ac565b80601f016020809104026020016040519081016040528092919081815260200182805462000c9390620019ac565b801562000ce45780601f1062000cb85761010080835404028352916020019162000ce4565b820191906000526020600020905b81548152906001019060200180831162000cc657829003601f168201915b5050505050908060010154908060020160009054906101000a900460ff16908060020160019054906101000a900473ffffffffffffffffffffffffffffffffffffffff16905084565b6001600281111562000d68577f4e487b7100000000000000000000000000000000000000000000000000000000600052602160045260246000fd5b6003600083815260200190815260200160002060020160009054906101000a900460ff16600281111562000dc5577f4e487b7100000000000000000000000000000000000000000000000000000000600052602160045260246000fd5b1462000e08576040517f08c379a000000000000000000000000000000000000000000000000000000000815260040162000dff906200172c565b60405180910390fd5b60026003600083815260200190815260200160002060020160006101000a81548160ff0219169083600281111562000e69577f4e487b7100000000000000000000000000000000000000000000000000000000600052602160045260246000fd5b02179055507f3a9ad46edabca5118a3cdd8fa59b5b9399d08b29a6f0e99b58bce2b98273e95981600360006004548152602001908152602001600020600101546003600085815260200190815260200160002060020160009054906101000a900460ff16600281111562000f06577f4e487b7100000000000000000000000000000000000000000000000000000000600052602160045260246000fd5b60036000600454815260200190815260200160002060020160019054906101000a900473ffffffffffffffffffffffffffffffffffffffff1660405162000f519493929190620017d1565b60405180910390a150565b60016020528060005260406000206000915054906101000a900460ff1681565b62000f8662001172565b73ffffffffffffffffffffffffffffffffffffffff1662000fa662000c17565b73ffffffffffffffffffffffffffffffffffffffff161462000fff576040517f08c379a000000000000000000000000000000000000000000000000000000000815260040162000ff69062001792565b60405180910390fd5b600073ffffffffffffffffffffffffffffffffffffffff168173ffffffffffffffffffffffffffffffffffffffff16141562001072576040517f08c379a000000000000000000000000000000000000000000000000000000000815260040162001069906200170a565b60405180910390fd5b6200107d816200117a565b50565b60006003600080815260200190815260200160002060020160019054906101000a900473ffffffffffffffffffffffffffffffffffffffff1673ffffffffffffffffffffffffffffffffffffffff1634622dc6c090604051620010e39062001606565b600060405180830381858888f193505050503d806000811462001123576040519150601f19603f3d011682016040523d82523d6000602084013e62001128565b606091505b50509050806200116f576040517f08c379a000000000000000000000000000000000000000000000000000000000815260040162001166906200174e565b60405180910390fd5b50565b600033905090565b60008060009054906101000a900473ffffffffffffffffffffffffffffffffffffffff169050816000806101000a81548173ffffffffffffffffffffffffffffffffffffffff021916908373ffffffffffffffffffffffffffffffffffffffff1602179055508173ffffffffffffffffffffffffffffffffffffffff168173ffffffffffffffffffffffffffffffffffffffff167f8be0079c531659141344cd1fd0a4f28419497f9722a3daafe3b4186f6b6457e060405160405180910390a35050565b6108c68062001cea83390190565b8280546200125a90620019ac565b90600052602060002090601f0160209004810192826200127e5760008555620012ca565b82601f106200129957805160ff1916838001178555620012ca565b82800160010185558215620012ca579182015b82811115620012c9578251825591602001919060010190620012ac565b5b509050620012d99190620012dd565b5090565b5b80821115620012f8576000816000905550600101620012de565b5090565b6000620013136200130d8462001847565b6200181e565b9050828152602081018484840111156200132c57600080fd5b6200133984828562001967565b509392505050565b600081359050620013528162001cb5565b92915050565b600082601f8301126200136a57600080fd5b81356200137c848260208601620012fc565b91505092915050565b600081359050620013968162001ccf565b92915050565b600060208284031215620013af57600080fd5b6000620013bf8482850162001341565b91505092915050565b60008060408385031215620013dc57600080fd5b600083013567ffffffffffffffff811115620013f757600080fd5b620014058582860162001358565b9250506020620014188582860162001385565b9150509250929050565b6000602082840312156200143557600080fd5b6000620014458482850162001385565b91505092915050565b6200145981620018a4565b82525050565b6200146a81620018b8565b82525050565b6200147b8162001903565b82525050565b6200148c816200192b565b82525050565b6200149d8162001953565b82525050565b6000620014b0826200187d565b620014bc818562001893565b9350620014ce81856020860162001976565b620014d98162001b22565b840191505092915050565b6000620014f360128362001893565b9150620015008262001b33565b602082019050919050565b60006200151a60268362001893565b9150620015278262001b5c565b604082019050919050565b600062001541603d8362001893565b91506200154e8262001bab565b604082019050919050565b60006200156860168362001893565b9150620015758262001bfa565b602082019050919050565b60006200158f60268362001893565b91506200159c8262001c23565b604082019050919050565b6000620015b660208362001893565b9150620015c38262001c72565b602082019050919050565b6000620015dd60008362001888565b9150620015ea8262001c9b565b600082019050919050565b6200160081620018f9565b82525050565b60006200161382620015ce565b9150819050919050565b60006020820190506200163460008301846200144e565b92915050565b60006020820190506200165160008301846200145f565b92915050565b60006060820190506200166e600083018662001470565b6200167d6020830185620015f5565b6200168c6040830184620015f5565b949350505050565b60006080820190508181036000830152620016b08187620014a3565b9050620016c16020830186620015f5565b620016d0604083018562001492565b620016df606083018462001481565b95945050505050565b600060208201905081810360008301526200170381620014e4565b9050919050565b6000602082019050818103600083015262001725816200150b565b9050919050565b60006020820190508181036000830152620017478162001532565b9050919050565b60006020820190508181036000830152620017698162001559565b9050919050565b600060208201905081810360008301526200178b8162001580565b9050919050565b60006020820190508181036000830152620017ad81620015a7565b9050919050565b6000602082019050620017cb6000830184620015f5565b92915050565b6000608082019050620017e86000830187620015f5565b620017f76020830186620015f5565b620018066040830185620015f5565b6200181560608301846200144e565b95945050505050565b60006200182a6200183d565b9050620018388282620019e2565b919050565b6000604051905090565b600067ffffffffffffffff82111562001865576200186462001af3565b5b620018708262001b22565b9050602081019050919050565b600081519050919050565b600081905092915050565b600082825260208201905092915050565b6000620018b182620018d9565b9050919050565b60008115159050919050565b6000819050620018d48262001c9e565b919050565b600073ffffffffffffffffffffffffffffffffffffffff82169050919050565b6000819050919050565b6000620019108262001917565b9050919050565b60006200192482620018d9565b9050919050565b600062001938826200193f565b9050919050565b60006200194c82620018d9565b9050919050565b60006200196082620018c4565b9050919050565b82818337600083830152505050565b60005b838110156200199657808201518184015260208101905062001979565b83811115620019a6576000848401525b50505050565b60006002820490506001821680620019c557607f821691505b60208210811415620019dc57620019db62001ac4565b5b50919050565b620019ed8262001b22565b810181811067ffffffffffffffff8211171562001a0f5762001a0e62001af3565b5b80604052505050565b600062001a2582620018f9565b91507fffffffffffffffffffffffffffffffffffffffffffffffffffffffffffffffff82141562001a5b5762001a5a62001a66565b5b600182019050919050565b7f4e487b7100000000000000000000000000000000000000000000000000000000600052601160045260246000fd5b7f4e487b7100000000000000000000000000000000000000000000000000000000600052602160045260246000fd5b7f4e487b7100000000000000000000000000000000000000000000000000000000600052602260045260246000fd5b7f4e487b7100000000000000000000000000000000000000000000000000000000600052604160045260246000fd5b6000601f19601f8301169050919050565b7f46756c6c205061796d656e7473204f6e6c790000000000000000000000000000600082015250565b7f4f776e61626c653a206e6577206f776e657220697320746865207a65726f206160008201527f6464726573730000000000000000000000000000000000000000000000000000602082015250565b7f4974656d20697320656974686572206e6f74207061696420666f72206f72206660008201527f75727468657220616c6f6e672074686520737570706c7920636861696e000000602082015250565b7f5452584e2077617320554e5353554343455346554c4c00000000000000000000600082015250565b7f4974656d206973206675727468657220616c6f6e672074686520737570706c7960008201527f20636861696e0000000000000000000000000000000000000000000000000000602082015250565b7f4f776e61626c653a2063616c6c6572206973206e6f7420746865206f776e6572600082015250565b50565b6003811062001cb25762001cb162001a95565b5b50565b62001cc081620018a4565b811462001ccc57600080fd5b50565b62001cda81620018f9565b811462001ce657600080fd5b5056fe608060405234801561001057600080fd5b506040516108c63803806108c6833981810160405281019061003291906100b3565b806001819055508160008190555082600260016101000a81548173ffffffffffffffffffffffffffffffffffffffff021916908373ffffffffffffffffffffffffffffffffffffffff16021790555050505061017e565b60008151905061009881610150565b92915050565b6000815190506100ad81610167565b92915050565b6000806000606084860312156100c857600080fd5b60006100d686828701610089565b93505060206100e78682870161009e565b92505060406100f88682870161009e565b9150509250925092565b600061010d82610126565b9050919050565b600061011f82610102565b9050919050565b600073ffffffffffffffffffffffffffffffffffffffff82169050919050565b6000819050919050565b61015981610114565b811461016457600080fd5b50565b61017081610146565b811461017b57600080fd5b50565b6107398061018d6000396000f3fe6080604052600436106100435760003560e01c8063027b753f146102cb5780637a345686146102f6578063b07a31e314610321578063cf086c321461034c576102c6565b366102c65734600054111561008d576040517f08c379a0000000000000000000000000000000000000000000000000000000008152600401610084906104f0565b60405180910390fd5b6000543411156100f15760008054346100a69190610572565b90503373ffffffffffffffffffffffffffffffffffffffff166108fc829081150290604051600060405180830381858888f193505050501580156100ee573d6000803e3d6000fd5b50505b600260009054906101000a900460ff1615610141576040517f08c379a000000000000000000000000000000000000000000000000000000000815260040161013890610510565b60405180910390fd5b6001600260006101000a81548160ff0219169083151502179055506000600260019054906101000a900473ffffffffffffffffffffffffffffffffffffffff1673ffffffffffffffffffffffffffffffffffffffff16600054622dc6c0906001546040516024016101b29190610530565b6040516020818303038152906040527f800fb83f000000000000000000000000000000000000000000000000000000007bffffffffffffffffffffffffffffffffffffffffffffffffffffffff19166020820180517bffffffffffffffffffffffffffffffffffffffffffffffffffffffff838183161783525050505060405161023c9190610483565b600060405180830381858888f193505050503d806000811461027a576040519150601f19603f3d011682016040523d82523d6000602084013e61027f565b606091505b50509050806102c3576040517f08c379a00000000000000000000000000000000000000000000000000000000081526004016102ba906104d0565b60405180910390fd5b50005b600080fd5b3480156102d757600080fd5b506102e0610377565b6040516102ed91906104b5565b60405180910390f35b34801561030257600080fd5b5061030b61039d565b604051610318919061049a565b60405180910390f35b34801561032d57600080fd5b506103366103b0565b6040516103439190610530565b60405180910390f35b34801561035857600080fd5b506103616103b6565b60405161036e9190610530565b60405180910390f35b600260019054906101000a900473ffffffffffffffffffffffffffffffffffffffff1681565b600260009054906101000a900460ff1681565b60005481565b60015481565b6103c5816105a6565b82525050565b60006103d68261054b565b6103e08185610556565b93506103f0818560208601610600565b80840191505092915050565b610405816105dc565b82525050565b6000610418602283610561565b915061042382610662565b604082019050919050565b600061043b601f83610561565b9150610446826106b1565b602082019050919050565b600061045e601883610561565b9150610469826106da565b602082019050919050565b61047d816105d2565b82525050565b600061048f82846103cb565b915081905092915050565b60006020820190506104af60008301846103bc565b92915050565b60006020820190506104ca60008301846103fc565b92915050565b600060208201905081810360008301526104e98161040b565b9050919050565b600060208201905081810360008301526105098161042e565b9050919050565b6000602082019050818103600083015261052981610451565b9050919050565b60006020820190506105456000830184610474565b92915050565b600081519050919050565b600081905092915050565b600082825260208201905092915050565b600061057d826105d2565b9150610588836105d2565b92508282101561059b5761059a610633565b5b828203905092915050565b60008115159050919050565b600073ffffffffffffffffffffffffffffffffffffffff82169050919050565b6000819050919050565b60006105e7826105ee565b9050919050565b60006105f9826105b2565b9050919050565b60005b8381101561061e578082015181840152602081019050610603565b8381111561062d576000848401525b50505050565b7f4e487b7100000000000000000000000000000000000000000000000000000000600052601160045260246000fd5b7f5061796d656e7420556e73756363657366756c20526576657274696e6720545260008201527f584e000000000000000000000000000000000000000000000000000000000000602082015250565b7f496e73756666696369656e7420416d6f756e74206f66205765692053656e7400600082015250565b7f4974656d20697320616c7265616479207061696420666f72000000000000000060008201525056fea2646970667358221220ed18d4f94f5b5ce7cbd067d3b78efb960a42a9b66f9b537ff0e067c2de6e030664736f6c63430008010033a2646970667358221220a48e8600add069119513d2d0f1b76e571fb01a4d16c9ea681496a346a7b8229464736f6c63430008010033",
  "immutableReferences": {},
  "source": "// SPDX-License-Identifier: MIT\r\npragma solidity ^0.8.0; \r\n\r\nimport \"@openzeppelin/contracts/access/Ownable.sol\" ; \r\nimport \"./Item.sol\" ; \r\n\r\n\r\n\r\ncontract Authorize is Ownable{\r\n    mapping(address => bool) public isCreator ; \r\n    mapping(address => bool) public isDelivery;\r\n    event NewCreatorAssigned(address indexed _byWhom,address indexed _newCreatorAssigned);  \r\n    event NewDeliveryAssigned(address indexed _byWhom,address indexed _newDeliveryAssigned);  \r\n    \r\n    function setCreator(address _creatorAddress) public onlyOwner{\r\n        isCreator[_creatorAddress] = true ;\r\n        emit NewCreatorAssigned(msg.sender, _creatorAddress);\r\n    }\r\n    \r\n    function setDeliverer(address _delivererAddress) public onlyOwner{\r\n        isDelivery[_delivererAddress] = true ; \r\n        emit NewDeliveryAssigned(msg.sender, _delivererAddress);\r\n    }\r\n    \r\n    modifier onlyCreator ()  {\r\n        require(isCreator[msg.sender],\"You Are Not Allowed to Create Items\");\r\n        _;\r\n    }\r\n    modifier onlyDelivery ()  {\r\n        require(isDelivery[msg.sender],\"You Are Not Allowed to Deliver Items\");\r\n        _;\r\n    }\r\n    \r\n}\r\n\r\ncontract ItemManager is Authorize{\r\n    \r\n    enum SupplyChainState{Created,Paid,Delivered} \r\n    struct S_Item{\r\n        string  _identifier ; \r\n        uint _itemPrice ; \r\n        ItemManager.SupplyChainState _state ; \r\n        Item item ; \r\n    }\r\n    mapping (uint => S_Item) public items ; \r\n    uint index;\r\n    \r\n    event SupplyChainStep(uint _itemIndex,uint _itemPrice, uint _step, address itemContractAddress );\r\n    \r\n    function viewAddress() external view returns(address){\r\n        return address(this);\r\n    }\r\n    function createItem(string memory _identifier,uint _itemPrice) public { // Only Creator Modifier onlyCreator\r\n     //   /has to emit item creaton event somewhere\r\n        Item newItem = new Item(this,_itemPrice,index);\r\n        items[index]._identifier = _identifier ; \r\n        items[index].item =  newItem ; \r\n        items[index]._itemPrice = _itemPrice ; \r\n        items[index]._state = SupplyChainState.Created ; \r\n        emit SupplyChainStep( index ,items[index]._itemPrice, uint(items[index]._state) , address(items[index].item) );\r\n        index++;\r\n    }\r\n    \r\n    function triggerPayment(uint _index)  public payable {\r\n        require(items[_index]._itemPrice == msg.value , \"Full Payments Only\");\r\n        require(items[_index]._state == SupplyChainState.Created , \"Item is further along the supply chain\");\r\n        items[_index]._state = SupplyChainState.Paid ; \r\n        \r\n        emit SupplyChainStep(_index,items[index]._itemPrice,uint(items[_index]._state), address(items[index].item)); \r\n    }\r\n    \r\n\r\n\r\n    function seeProgress(uint _index) view external returns (uint){\r\n        return uint(items[_index]._state);\r\n    }\r\n  \r\n    function triggerDelivery(uint _index) public  { //ONLY DELIVERY MAN MODIFIER onlyDelivery\r\n       require(items[_index]._state == SupplyChainState.Paid , \"Item is either not paid for or further along the supply chain\");\r\n       items[_index]._state = SupplyChainState.Delivered  ; \r\n       emit SupplyChainStep(_index,items[index]._itemPrice,uint(items[_index]._state), address(items[index].item)); \r\n    }\r\n\r\nfunction UnitTestPayFunnelForFirstItem() public payable{\r\n    //    address itemAddress = address(items[0].item) ; \r\n    //     (bool success , ) = payable(itemAddress)\r\n    //     .call{value:msg.value,gas:3000000}(\"\");                //// Might need to change thsi value a litle \r\n    //     require(success,\"TRXN was UNSSUCCESFULL\");\r\n        (bool success , ) = payable(items[0].item)\r\n        .call{value:msg.value,gas:3000000}(\"\");                //// Might need to change thsi value a litle \r\n        require(success,\"TRXN was UNSSUCCESFULL\");\r\n            //    emit SupplyChainStep(0,items[0]._itemPrice,uint(items[0]._state), address(items[0].item)); \r\n\r\n    }\r\n\r\n    \r\n\r\n}\r\n\r\ncontract TestFunnel is ItemManager{\r\n    receive() external payable {\r\n        // require(_itemPrice <= msg.value, \"Insufficient Amount of Wei Sent\"); \r\n        // if(msg.value>_itemPrice){\r\n        //     uint extra = msg.value-_itemPrice ; \r\n        //     payable(msg.sender).transfer(extra) ; //might need to send a bit less?? to have some gass left? ADD FUNCTION FOR GAS \r\n        // }\r\n        //  require(!_paymentDone,\"Item is already paid for\");\r\n        //  _paymentDone = true; \r\n        \r\n        // (bool status , ) = \r\n        //     address(_parentContract)\r\n        //     .call{value:_itemPrice,gas:3000000}                //// Might need to change thsi value a litle \r\n        //     (abi.encodeWithSignature(\"triggerPayment(uint256)\",_itemIndex));\r\n        \r\n        // require(status, \"Payment Unsuccesful Reverting TRXN\") ; \r\n        \r\n    }\r\n    \r\n// comment out the function below later     \r\n    // function UnitTestPayFunnelForFirstItem() public payable{\r\n    // //    address itemAddress = address(items[0].item) ; \r\n    // //     (bool success , ) = payable(itemAddress)\r\n    // //     .call{value:msg.value,gas:3000000}(\"\");                //// Might need to change thsi value a litle \r\n    // //     require(success,\"TRXN was UNSSUCCESFULL\");\r\n    //     (bool success , ) = payable(items[0].item)\r\n    //     .call{value:msg.value,gas:3000000}(\"\");                //// Might need to change thsi value a litle \r\n    //     require(success,\"TRXN was UNSSUCCESFULL\");\r\n    //         //    emit SupplyChainStep(0,items[0]._itemPrice,uint(items[0]._state), address(items[0].item)); \r\n\r\n    // }\r\n\r\n}",
  "sourcePath": "C:\\Users\\Asus\\OneDrive - BUET\\_CSE_sourceCode\\Projects\\TRUFFLE PROJECTS\\SupplyChain\\contracts\\ItemManager.sol",
  "compiler": {
    "name": "solc",
    "version": "0.8.1+commit.df193b15.Emscripten.clang"
  },
  "schemaVersion": "3.4.3",
  "updatedAt": "2021-11-03T14:51:14.473Z",
  "devdoc": {
    "kind": "dev",
    "methods": {
      "owner()": {
        "details": "Returns the address of the current owner."
      },
      "renounceOwnership()": {
        "details": "Leaves the contract without owner. It will not be possible to call `onlyOwner` functions anymore. Can only be called by the current owner. NOTE: Renouncing ownership will leave the contract without an owner, thereby removing any functionality that is only available to the owner."
      },
      "transferOwnership(address)": {
        "details": "Transfers ownership of the contract to a new account (`newOwner`). Can only be called by the current owner."
      }
    },
    "version": 1
  },
  "userdoc": {
    "kind": "user",
    "methods": {},
    "version": 1
  }
}